:020000040800F2
:10000000A02400206902000803120008C5050008AA
:1000100001120008C10500080D16000800000000CC
:1000200000000000000000000000000009130008AC
:10003000C305000800000000371200080B13000879
:10004000830200088302000883020008830200087C
:10005000830200088302000883020008830200086C
:10006000830200088302000883020008830200085C
:10007000830200088302000883020008830200084C
:10008000830200088302000883020008830200083C
:10009000830200088302000883020008830200082C
:1000A000830200088302000883020008830200081C
:1000B000830200088302000883020008830200080C
:1000C00083020008830200088302000883020008FC
:1000D00083020008C114000883020008830200089C
:1000E00083020008830200088302000883020008DC
:1000F00083020008A9130008830200088302000895
:1001000083020008830200088302000883020008BB
:1001100083020008830200088302000883020008AB
:10012000830200088302000883020008830200089B
:1001300083020008000000000000000083020008A5
:10014000830200088302000883020008830200087B
:10015000830200088302000883020008830200086B
:10016000830200088302000883020008830200085B
:100170008302000883020008000000000000000065
:10018000830200088302000800F002F800F05CF827
:100190000AA090E8000C82448344AAF10107DA45E2
:1001A00001D100F051F8AFF2090EBAE80F0013F0D8
:1001B000010F18BFFB1A43F001031847781600001F
:1001C000981600000A444FF0000C10F8013B13F0A1
:1001D000070408BF10F8014B1D1108BF10F8015BA0
:1001E000641E05D010F8016B641E01F8016BF9D193
:1001F00013F0080F1EBF10F8014BAD1C0C1B09D1EA
:100200006D1E58BF01F801CBFAD505E014F8016B5B
:1002100001F8016B6D1EF9D59142D6D370470000ED
:100220000023002400250026103A28BF78C1FBD8FF
:10023000520728BF30C148BF0B6070471FB501F09F
:10024000E1FA1FBD10B510BD00F0CFF81146FFF761
:10025000F5FF01F0F9F900F0EDF803B4FFF7F2FF54
:1002600003BC00F0F5F80000094880470948004742
:10027000FEE7FEE7FEE7FEE7FEE7FEE7FEE7FEE756
:10028000FEE7FEE704480549054A064B70470000B3
:100290009913000889010008A01E0020A024002056
:1002A000A0200020A020002053EA020C00F069806A
:1002B0002DE9F04B4FF00006002B1FBFB3FA83F57A
:1002C00003FA05F424FA05F65E4012BF1643B2FAAB
:1002D00082F502FA05F4C5F120051EBF22FA05FCDD
:1002E00044EA0C04203556EA044C4FEA144418BF83
:1002F000641C4FF000084FF00009904271EB030CB2
:1003000039D3002919BFB1FA81F701FA07F6B0FA1B
:1003100080F700FA07F6C7F120071EBF20FA07FC96
:1003200046EA0C062037B6FBF4FCA7EB0507103FA6
:1003300007F01F0BCBF120060CFA0BFB2CFA06F68C
:1003400044BFB3460026202FA4BF5E464FF0000BEB
:100350005BEA060C08BF4FF0010B19EB0B09ABFB76
:10036000027C48EB0608C01B06FB02CC0BFB03CC4F
:1003700071EB0C01C1E70B46024641464846BDE819
:10038000F08B13B54FF000004FF00001AFF3008089
:10039000BDE81C4070474FF0000200B5134694467C
:1003A0009646203922BFA0E80C50A0E80C50B1F1CD
:1003B0002001BFF4F7AF090728BFA0E80C5048BFE1
:1003C0000CC05DF804EB890028BF40F8042B08BF7F
:1003D000704748BF20F8022B11F0804F18BF00F87B
:1003E000012B7047704770477047754600F02CF836
:1003F000AE4605006946534620F00700854618B012
:1004000020B5FFF73FFFBDE820404FF000064FF05A
:1004100000074FF000084FF0000B21F00701AC4639
:10042000ACE8C009ACE8C009ACE8C009ACE8C00958
:100430008D46704710B50446AFF300802046BDE8F6
:100440001040FFF70ABF0000004870473C1E002024
:1004500001491820ABBEFEE72600020070470000ED
:100460002DE9F04300205349534D0446088048606D
:10047000C860486103460246814601F124064FF4F4
:100480008068C8614F46C5F83490D5F808C04CF074
:10049000804CC5F808C0A1F8029000BFB1F802C0B6
:1004A0000CF1010C1FFA8CFCA1F802C0BCF1640F26
:1004B000F4D3D5F84CC01FFA8CFCA6F800C06444F5
:1004C0004FF0010CC5F834C0D5F808C04CF0804C92
:1004D000C5F808C0A1F80270B1F802C00CF1010C17
:1004E0001FFA8CFCA1F802C0BCF1640FF4D3D5F85C
:1004F0004CC01FFA8CFCA6F802C063444FF0020CFB
:10050000C5F834C0D5F808C04CF0804CC5F808C018
:10051000A1F80270B1F802C00CF1010C1FFA8CFCBA
:10052000A1F802C0BCF1640FF4D3D5F84CC01FFA97
:100530008CFCA6F804C062444FF0060CC5F834C029
:10054000D5F808C04CF0804CC5F808C04F80BFB249
:100550007F1CBFB24F80642FF9D3EF6CBFB2F7801E
:1005600038440F887F1CBFB20F8047458AD34C6048
:10057000CB604A61C861640A8C605B0A0B61520AF5
:100580008A61400A08628B690C4841F224344215A2
:100590004FF40061A34206D28161C103816101046D
:1005A0008161BDE8F0834FF0006181618261C0F834
:1005B0001880F6E7000000200020014000040240FF
:1005C000FEE77047FEE7000030B5134C4B68002291
:1005D000A468124D04F00104AD6805F001052C4338
:1005E0000F4DAD6805F001052C4302D001221046E5
:1005F00030BD0C4D53B10C681C43D1E902310B43A3
:1006000041681C4329400C434460F0E74368096893
:100610002B400B434360EAE70020014000210140EA
:1006200000220140E010FCFF30B58368002213F087
:10063000010F02D00122104630BD8C680B682343A5
:100640004468054D2C40234343608368496823F484
:1006500000630B438360EEE7FFFEFFFC30B54B68A1
:100660008468002214F0010F02D00122104630BD30
:10067000002B436823F4684301D08C682343436014
:10068000D1E9033423438468074D2C400D6805F0FD
:1006900070652C43234383604968C36A23F4700365
:1006A0000B43C362E2E70000FDFCFFC0044908B54C
:1006B0000A6802430A6009680140009108BD000011
:1006C00030380240044908B50A6802430A600968E4
:1006D0000140009108BD000040380240044908B5BF
:1006E0000A6802430A6009680140009108BD0000E1
:1006F00044380240C1F3034100EB810081686FF38D
:100700000B01114381607047C1F3034100EB81008D
:1007100081686FF30B0111438160704770B500244D
:1007200001F010010123556806688B40B3430ED0D9
:100730007DB113682B43D2E9025215432B43026863
:100740008B4040F6FA758D40AA4313430AE001241A
:1007500009E00368FA258D40AB431568D26815435C
:100760008D402B430360204670BDF0B50A680F260C
:1007700092FAA2F2B2FA82F303248AE001279F40A0
:1007800015EA07027DD04D68012D01D0022D1BD145
:100790008D68876892FAA2FCBCFA8CFC4FEA4C0C7C
:1007A00004FA0CFC27EA0C0792FAA2FCBCFA8CFCB7
:1007B0004FEA4C0C05FA0CF52F438760CD6847686B
:1007C000554397432F4347600F69D0F80CC092FA06
:1007D000A2F5B5FA85F54FEA450E04FA0EF52CEAB6
:1007E000050C92FAA2F5B5FA85F56D00AF404CEA1A
:1007F000070CC0F80CC04D68022D33D192FAA2F557
:10080000B5FA85F5082D15D2D1F814C0056A92FA0B
:10081000A2F7B7FA87F7BF0006FA07F7BD4392FAC7
:10082000A2F7B7FA87F7BF000CFA07FC45EA0C05F8
:10083000056217E0D1F814E0476A150A95FAA5FC9D
:10084000BCFA8CFC4FEA8C0C06FA0CFC95FAA5F568
:10085000B5FA85F5AD0027EA0C070EFA05FE47EA62
:100860000E0747624D68076892FAA2FCBCFA8CFC3E
:100870004FEA4C0C04FA0CFE27EA0E0792FAA2F299
:1008800000E005E0B2FA82F2520095402F43076083
:100890005B1C0A681546DA407FF470AF0020F0BD9B
:1008A0004FF47A71B0FBF1F14FF0E020491E416145
:1008B0000021816105210161704710B5044600F0F7
:1008C000E5FC206000F0B8FC606000F0C3FCA060B4
:1008D000606800F0CDFCE06010BD10B50368012237
:1008E000C3F380132BBBD1E900231A43D1E90234AF
:1008F00023431A430B691A434B691A438B691A4302
:10090000CB691A430B6A1A4303684FF6BF74A343BB
:100910001A43026042684B6922F0040242EA134221
:1009200042600A6AB2F5005F02D1898C89B2016126
:100930000022C16921F40061C161104610BD0000B0
:100940000149086070470000001E0020F0B50268F1
:10095000254B264D264E274F274C4FF0804C984272
:1009600009D0604507D0A84205D0B04203D0B842B4
:1009700001D0A04205D1D1F804E022F0700242EA91
:100980000E0298421BD0604519D0A84217D0B04241
:1009900015D0B84213D0A04211D0184DA8420ED0A5
:1009A000174DA8420BD0174DA84208D0164DA842AB
:1009B00005D0164DA84202D0154DA84203D1CD68EE
:1009C00022F440722A4302608A68C2620A88826204
:1009D000984201D0A04201D109690163416941F007
:1009E000010141610020F0BD000001400004004011
:1009F00000080040000C004000040140004001409D
:100A0000004401400048014000180040001C004024
:100A100000200040F0B5012600236E4C6E4D0129E8
:100A200008D010293BD0B1F5807F73D0B1F5805F3D
:100A30006ED1A6E0016A21F001010162016A4668F7
:100A40008769D2F800C027F0730747EA0C07D2F88D
:100A500010C021F0020141EA0C01D2F804C021F0DB
:100A6000010141EA0C01A04201D0A84212D154690F
:100A700021F0080141EA8401946821F0040141EA6F
:100A80008401956926F480742C43D56924F400749C
:100A900044EA450646608761D26842636FE0016AB6
:100AA00021F010010162066A41688769D2F800C02E
:100AB00027F4E64747EA0C27D2F810C026F02006B4
:100AC00046EA0C16D2F804C026F0100646EA0C16C8
:100AD000A04201D0A84213D1556926F0800444EA0F
:100AE0008514956824F0400444EA8516946921F43D
:100AF000806141EA8401D46921F4006141EAC401C2
:100B000041608761D168816361E003E000E01E46D7
:100B10003046F0BD016A21F480710162016A4668C5
:100B2000C769D2F800C027F0730747EA0C07D2F86C
:100B300010C021F4007141EA0C21D2F804C021F464
:100B4000807141EA0C21A04201D0A84213D154691E
:100B500021F4006141EA8421946821F4806141EA32
:100B60008421956926F4805444EA0514D56924F457
:100B7000005444EA45164660C761D268C263016208
:100B8000C5E7016A21F480510162066A4168C769BC
:100B9000D2F800C027F4E64747EA0C27D2F810C085
:100BA00026F4005646EA0C36D2F804C026F48056E5
:100BB00046EA0C36A04201D0A84204D1946921F43F
:100BC000804141EA84114160C761D16801640662D5
:100BD0009DE7000000000140000401407FB504468D
:100BE000C0680D460126C0F34030C0BBE9686868A4
:100BF000AA690843296911430843E16849F20C6274
:100C000091430843E060A868216921F44051014301
:100C100021616869616921F440710143616168463D
:100C2000FFF74BFE0F48844208D00F4884420DD096
:100C30000E4884420AD00E48844201D1039906E04E
:100C40000C48844202D00C48844208D1029931B148
:100C50002B6823B100262046AA6900F00FF804B0E3
:100C6000304670BD00100140004400400048004084
:100C700000140140004C0040005000402DE9F041BC
:100C800006461920A1FB00011F46002364243225DB
:100C9000B2F5004F27D0BB0FBA00FFF705FB0146A6
:100CA000B0FBF4F06FF01802504301EB800005EB4D
:100CB0000010B0FBF4F000F0F002B1FBF4F002EB36
:100CC0000012B1FBF4F06FF01803584301EB800001
:100CD00005EB0010B0FBF4F000F00F00104480B200
:100CE000B060BDE8F081FA195B41FFF7DDFA01461B
:100CF000B0FBF4F00201B1FBF4F06FF018035843BD
:100D000001EB800005EBC000B0FBF4F000F0F80050
:100D100002EB4002B1FBF4F0584301EB800005EB1D
:100D2000C000B0FBF4F000F00700D7E770B592B058
:100D300000240F941094142106A81194FFF72BFBA4
:100D40000B940C940D94182168460E94FFF723FB26
:100D50004FF48070FFF7C2FC0120FFF7A7FC0220D0
:100D6000FFF7A4FCCF200325CDE9000569460494D4
:100D70002A48FFF7FAFC0095694629480195049432
:100D8000FFF7F3FC274D0F9410940FA928461194F8
:100D9000FFF74AFC069407940894099406A928468C
:100DA0000A94FFF75BFCA86840F48060A8600B948D
:100DB0000BA91D480C94FFF707FC4FF4407268150F
:100DC00092FAA2F20104B2FA82F2D04005EB80005E
:100DD000C26A22F01F02C26291FAA1F0B0FA80F05A
:100DE000C14005EB8100C1684FF0F87292FAA2F39E
:100DF000B3FA83F324FA03F307269E4092FAA2F291
:100E0000B2FA82F224FA02F2B14394402143C16063
:100E1000A86840F00100A86012B070BD0000024058
:100E200000040240002001400023014010B58AB0B8
:100E30000024009401940294182104A80394FFF75D
:100E4000AAFA4FF00050FFF73DFC0120FFF72EFCFF
:100E5000302004900320059004A908940B48FFF764
:100E600084FC3820CDE9000403940A4C6A46084902
:100E70002046FFF753FC6A4607492046FFF74EFC21
:100E8000206840F0011020600AB010BD0000024050
:100E90000100100200740040120043152DE9F043D8
:100EA00087B018216846FFF776FA0420FFF7FEFBAB
:100EB0000120FFF7FBFB0220FFF7F8FB0820FFF7FC
:100EC000F5FB2A4E46F2FB010804B061284F4FF0B3
:100ED00074604FF47469B861DFF898804FF0C052C5
:100EE000C8F81820009101250024CDE9015403948D
:100EF000694630460494FFF738FC4FF44170CDE961
:100F00000004694630460494FFF72FFC0426CDE91F
:100F10000064694638460494FFF727FCCDF800903A
:100F2000CDE901540394694638460494FFF71DFC4B
:100F30002802CDE90004694640460494FFF715FCF9
:100F40004FF418400090CDE901540394694640469F
:100F50000494FFF70AFCCDE900646946064804944E
:100F6000FFF703FC07B0BDE8F08300000008024073
:100F70000004024000000240000C024010B590B096
:100F800028216846FFF707FA18210AA8FFF703FA95
:100F90004FF48040FFF796FB0220FFF787FB4FF4EA
:100FA00070400A9002200B9003200024CDE90C042D
:100FB0000520CDE90E400AA90E48FFF7D6FB4FF4F5
:100FC0008270CDE900404FF48020CDE904400394C5
:100FD0000A20CDE90840029406940794064C69461D
:100FE0002046FFF77AFC606820F01000606010B0C7
:100FF00010BD0000000402400038004070B590B001
:10100000282106A8FFF7C7F918216846FFF7C3F99A
:101010004FF400442046FFF755FB0120FFF746FB45
:101020000420FFF743FB0120CDE900400024032505
:101030000626CDE90254CDE9044669461548FFF776
:1010400094FB4FF4E05000900220CDE90254CDE92A
:101050000446019069461048FFF787FB4FF4827001
:10106000CDE906404FF40060CDE90804C001CDE9A8
:101070000A408020CDE90C400A20CDE90E40074C03
:1010800006A92046FFF729FC606820F01000606088
:1010900010B070BD0000024000080240003C00405B
:1010A00030B58DB0142108A8FFF775F920216846E6
:1010B000FFF771F94FF48070FFF704FB1F480068D9
:1010C0000022C0F30220114600F09CF801462D20BA
:1010D00000F0AAFA2D2000F09AFA0820ADF82000BE
:1010E00000244002CDE90940154D08A928460B947B
:1010F000FFF72CFC286840F08000286000940194E1
:10110000029403946A46012128460494FFF782FC66
:101110000C480B490078183108440168094AD21D6F
:10112000137804229A409143016081202860E813DB
:10113000A8620120E8600DB030BD00000CED00E0B9
:10114000002000400E18000810B58EB01C21684623
:10115000FFF721F9182107A8FFF71DF91020FFF765
:10116000BDFA0120FFF7A2FA4FF4C06007900220F9
:10117000089003200024CDE909040720CDE90B40A5
:1011800007A91C48FFF7F1FA4FF4E130CDE900045C
:101190000C200294CDE9034005940694164C694650
:1011A0002046FFF71BFD04F1140000BF50E8001FAC
:1011B00021F4806140E80012002AF7D1206920F470
:1011C00090402061606920F02A006061E06840F48E
:1011D0000050E060094800681146C0F3022000F0AA
:1011E00011F80146252000F01FFA252000F00FFA23
:1011F0000EB010BD00000240001001400CED00E0F8
:10120000FEE7FEE730B500F00703C3F10704042C46
:1012100000D90424181D072801D2002300E0DB1E9A
:10122000012505FA04F0401E084098409D406D1EBF
:101230001540284330BD704704490968044A01F04D
:10124000F0010909515CC8407047000008380240AD
:101250001C18000804490968044A01F4E05102EB33
:1012600091210978C8407047083802402C180008BE
:1012700004490968044A01F4604102EB51310978DC
:10128000C8407047083802402C180008074800681A
:1012900010F00C01064807D0042904D0082903D116
:1012A000082000F009B803487047000008380240E1
:1012B0000024F40040787D0110B5104A0446002057
:1012C000116811F480030E4903D0B3F5800F00D1EB
:1012D0000C49082C11D1106800F03F00B1FBF0F070
:1012E0001168C1F3881148431168012201F44031AB
:1012F00002EB11414900B0FBF1F010BD043802408F
:101300000024F40040787D01704770471E4810B5F6
:10131000016821F007010160016811F0070FFBD19E
:101320001A48016841F4804101601948016821F0C0
:10133000F80141F080010160016841F001010160A4
:101340000168C1F340010029FAD011480830016852
:1013500021F0F0010160016821F4E05101600168B1
:1013600021F460410160016821F00301016001681E
:1013700011F00C0FFBD1074C2046FFF791FA2046E5
:10138000BDE81040FFF7DCBA003C024000700040AE
:10139000003802400024F4000248016841F4700162
:1013A0000160704788ED00E02DE9F0413A490020E6
:1013B00008613A4C2070A078401CA070384B187A15
:1013C000642826D2374A158841F6583636493748B8
:1013D000B54219D2158841F22436B54214D3128889
:1013E000334DA2F59852233A92B2A28035F81220DA
:1013F0009B7905461A44B4F906301A44FFF784F97C
:1014000022892C49284602E013884FF48072FFF7A6
:101410007BF9294B4FF4004528049861274801685F
:1014200041F0400101601D4A163217E01C4E123691
:10143000775C0E44767807EB0626B6B2C6608668FF
:10144000C6F34006002EFAD0866816F0010FFBD0D6
:10145000C66821F00107D653891C217021780E2916
:10146000E4D39D61016821F0400101600B4950887F
:101470000A314870000A0870918808480B0B103038
:1014800003704170C1F303218170D188C170C1F331
:1014900003210171BDE8F081002000402C000020F4
:1014A0000D1E00201800002012004315007400409B
:1014B0004A0000200100100200000240003C0040F1
:1014C000F0B54A4842684B49494B4C781A551D784B
:1014D0000022AA2D3BD1641CE4B24C70072C7DD9AC
:1014E0004A705C78322C33D31A703723436001F191
:1014F00016064B7836F81340E5B245600568C5F32B
:10150000C015002DFAD0240A44600468C4F3C01446
:10151000002CFAD05B1C13F0FF034B70E9D0364B64
:101520004A701C88E4B244600468C4F3C014002C00
:10153000FAD01C88240A44600468C4F3C014002C48
:10154000FAD04C78641C14F0FF044C70E9D04AE0E7
:10155000DC78C4F38104022C44D1DA701A70284B71
:10156000264C1C60274C1C60254C08342368DD0386
:1015700004F104031AD41D6845F002051D601D68BE
:1015800025F0F80545F010051D601D6825F440752F
:1015900045F400751D601D6845F480351D602568A3
:1015A000ED03FCD41D6825F002051D602568ED03E0
:1015B00016D41D6845F001051D60CF68124D4FF02F
:1015C000AA36C7E900562568ED03FCD41C6824F050
:1015D00002041C601C6844F0004400E004E01C604D
:1015E000392343604A704A70F0BD0000001001408A
:1015F0000D1E00202C00002018000020230167454C
:10160000043C0240AB89EFCD78563412FEE7002847
:1016100009DB00F01F02012191404009800000F128
:10162000E020C0F8001170470907090E002804DB0C
:1016300000F1E02080F80014704700F00F0000F186
:10164000E02080F8141D70474FF48040FFF746F803
:101650004FF08050FFF736F85D4801684FF6FF0203
:1016600011405C4A41F4407111430160006800225E
:10167000C0F302200F21FFF7C5FD01464FF0FF30F8
:10168000FFF7D2FFFFF742FEFFF708FCFFF74EFB24
:10169000FFF7CCFBFFF772FCFFF7B0FCFFF754FD40
:1016A0004D4800BF50E8001F41F0200140E8001203
:1016B000002AF7D1FFF7F4FC48494FF40060886135
:1016C000DFF81C812021474D88F80410AA202870DB
:1016D0003C2068700026AE70E020E870072028717A
:1016E00040276F710124AC713420E8718020DFF84D
:1016F000FC9028724FF49A723B494846FEF7FAFF75
:101700006879297900EB012239494846FEF7F2FF52
:101710003848A10581618761474641F6583BDFF8AB
:10172000D880DFF8D890364D4FF00A0AFEF798FEC1
:10173000397888F80010D9F81830404649465B459A
:1017400017D88B6940F6B83C634512D38A6922F0FA
:1017500001022A44A2F58052B2F84824120A4270CB
:101760008A6922F001022A44A2F58052B2F8482484
:1017700008E08B695B4503D902224270867002E063
:10178000467064228270FA78C2700A69120A027185
:101790000A69427184710322C2710A6A22F001024D
:1017A0002A44A2F58052B2F84824120A0272096A49
:1017B00021F001012944A1F58051B1F8481441728A
:1017C000847280F80BA0047388F80D60AEE7000007
:1017D0000CED00E00000FA050C1001400000024092
:1017E0000D1E0020041E00200100100200740040A5
:1017F00012004315000402401F1E002000000020BC
:101800005C0E00204FF04070E1EE100A70470000BF
:1018100000000404040000080000000800000000AC
:101820000000000001020304060708090000000090
:10183000010203045418000800000020041E0000E8
:10184000C40100087C1F0008041E00209C06000044
:1018500020020008013037BC02D0FF2D011280E2C7
:10186000085CDE06DD027ADC025ADB025ADA027A12
:10187000D9025AD8027AD7025AD6025AD5027AD455
:10188000025AD3025AD2027AD1025AD0025ACF0255
:101890007ACE025ACD027ACC025ACB025ACA027AC6
:1018A000C9025AC8025AC7027AC6025AC5025AC4A5
:1018B000027AC3025AC2027AC1025AC0025ABF0255
:1018C0007ABE025ABD025ABC027ABB025ABA025A06
:1018D000B9027AB8025AB7027AB6025AB5025AB4B5
:1018E000027AB3025AB2025AB1027AB0025AAF0275
:1018F0005AAE027AAD025AAC027AAB025AAA025A26
:10190000A9027AA8025AA7025AA6027AA5025AA4E4
:10191000025AA3027AA2025AA1027AA0025A9F0294
:101920005A9E027A9D025A9C025A9B027A9A025A45
:1019300099025A98027A97025A96027A95025A9414
:10194000025A93027A92025A91025A90027A8F02B4
:101950005A8E027A8D025A8C025A8B027A8A025A65
:1019600089025A88027A87025A86025A85027A8444
:10197000025A83027A82025A81025A80027A7F02D4
:101980005A7E025A7D027A7C025A7B025A7A027A85
:1019900079025A78027A77025A76025A75027A7474
:1019A000025A73025A72027A71025A70025A6F0214
:1019B0007A6E025A6D027A6C025A6B025A6A027A85
:1019C00069025A68025A67027A66025A65025A64C4
:1019D000027A63025A62027A61025A60025A5F0214
:1019E0007A5E025A5D025A5C027A5B025A5A025AC5
:1019F00059027A58025A57027A56025A55025A54D4
:101A0000027A53025A52025A51027A50025A4F0233
:101A10005A4E027A4D025A4C027A4B025A4A025AE4
:101A200049027A48025A47025A46027A45025A4403
:101A3000027A43025A42025A41027A40025A3F0253
:101A40005A3E027A3D025A3C025A3B027A3A025A04
:101A500039027A38025A37025A36027A35025A3433
:101A6000025A33027A32025A31025A30027A2F0273
:101A70005A2E027A2D025A2C025A2B027A2A025A24
:101A800029025A28027A27025A26025A25027A2463
:101A9000025A23027A22025A21025A20027A1F0293
:101AA0005A1E025A1D027A1C025A1B025A1A027A44
:101AB00019025A18027A17025A16025A15027A1493
:101AC000025A13025A12027A11025A10025A0F02D3
:101AD0007A0E025A0D027A0C025A0B025A0A027A44
:101AE00009025A08025A070289015A05025A0402D9
:101AF0007A03025A02027A01021159024BFF0502CF
:101B00007AFE025AFD025AFC027AFB025AFA027A63
:101B1000F9025AF8025AF7027AF6025AF5025AF412
:101B2000027AF3025AF2025AF1027AF0025AEF02F2
:101B30007AEE025AED025AEC027AEB025AEA025AA3
:101B4000E9027AE8025AE7025AE6027AE5025AE422
:101B5000027AE3025AE2025AE1027AE0025ADF0212
:101B60005ADE027ADD025ADC025ADB027ADA025AC3
:101B7000D9027AD8025AD7025AD6027AD5025AD452
:101B8000025AD3027AD2025AD1025AD0027ACF0232
:101B90005ACE027ACD025ACC025ACB027ACA025AE3
:101BA000C9025AC8027AC7025AC6025AC5027AC482
:101BB000025AC3027AC2025AC1025AC0027ABF0252
:101BC0005ABE025ABD027ABC025ABB025ABA027A03
:101BD000B9025AB8027AB7025AB6025AB5027AB4B2
:101BE000025AB3025AB2027AB1025AB0027AAF0272
:101BF0005AAE025AAD027AAC025AAB025AAA027A23
:101C0000A9025AA8025AA7027AA6025AA5027AA4E1
:101C1000025AA3025AA2027AA1025AA0025A9F02B1
:101C20007A9E025A9D025A9C027A9B025A9A027A22
:101C300099025A98025A97027A96025A95025A9431
:101C4000027A93025A92025A91027A90025A8F02B1
:101C50007A8E025A8D025A8C027A8B025A8A025A62
:101C600089027A88025A87025A86027A85025A8441
:101C7000027A83025A82025A81027A80025A7F02D1
:101C80005A7E027A7D025A7C025A7B027A7A025A82
:101C900079027A78025A77025A76027A75025A7471
:101CA000025A73027A72025A71025A70027A6F02F1
:101CB0005A6E027A6D025A6C025A6B027A6A025AA2
:101CC00069025A68027A67025A66027A65025A64A1
:101CD000025A63027A62025A61025A60027A5F0211
:101CE0005A5E025A5D027A5C025A5B027A5A025AC2
:101CF00059025A58027A57025A56025A55027A54D1
:101D0000025A53025A52027A51025A50027A4F0230
:101D10005A4E025A4D027A4C025A4B025A4A027AE1
:101D200049025A48025A47027A46025A45027A4400
:101D3000025A43025A42021A4102AB4901020A1BEB
:101D400048020A1B47020A1946020A1B45020A1BDF
:101D500044020A1B43020A1942020A1B41020A1BDF
:101D600040020A1B3F020A193E020A1B3D020A1BDF
:101D70003C020A193B020A1B3A020A1B39020A19E1
:101D800038020A1B37020A1B36020A1935020A1BDF
:101D900034020A1933020A1B32020A1B31020A19E1
:101DA00030020A1B2F020A192E020A1B2D020A19E1
:101DB0002C020A1B2B020A192A020A1B29020A19E1
:101DC00028020A1B27020A1926020A1B25020A19E1
:101DD00024020A1B23020A1922020A1B21020A19E1
:101DE00020020A191F020A1B1E020A191D020A1BE1
:101DF0001C020A191B020A191A020A1B19020A19E3
:101E000018020A1917020A1B16020A1915020A19E2
:101E100014020A1B13020A1912020A1911020A19E2
:101E200010020A1B0F020A190E020A190D020A19E2
:101E30000C020A1B0B020A190A020A1909020A19E2
:101E400008020A1907020A1906020A1B05020A19E2
:101E500004020A1903020A190202091A01110919D6
:101E60000212FF0918020A19FE020A1BFD020A19D2
:101E7000FC020A19FB020A19FA020A19F9020A19E4
:101E8000F8020A19F7020A19F6020A19F5020A19E4
:101E9000F4020A19F3020A19F2020A19F1020A19E4
:101EA000F0020A19EF020A19EE020A19ED020A17E6
:101EB000EC020A19EB020A19EA020A19E9020A19E4
:101EC000E8020A19E7020A19E6020A19E5020A17E6
:101ED000E4020A19E3020A19E2020A19E1020A19E4
:101EE000E0020A19DF020A17DE020A19DD020A19E6
:101EF000DC020A19DB020A17DA020A19D9020A19E6
:101F0000D8020A19D7020A17D6020A19D5020A19E5
:101F1000D4020A17D3020A19D2020A19D1020A17E7
:101F2000D0020A19CF020A19CE020A17CD020A19E5
:101F3000CC020A17CB020A19CA020A19C9020A17E7
:101F4000C8020A19C7020A17C6020A19C5020A17E7
:101F5000C4020A19C3020A17C2020A19C1020A17E7
:101F6000C0020A19BF020A17BE020A19BD020A17E7
:0C1F7000BC021ABB02311324F400000074
:040000050800018965
:00000001FF
